{
  "contractName": "christmasTree",
  "abi": [
    {
      "inputs": [],
      "stateMutability": "nonpayable",
      "type": "constructor"
    },
    {
      "inputs": [],
      "name": "owner",
      "outputs": [
        {
          "internalType": "address",
          "name": "",
          "type": "address"
        }
      ],
      "stateMutability": "view",
      "type": "function",
      "constant": true
    },
    {
      "inputs": [
        {
          "internalType": "uint256",
          "name": "decorationId",
          "type": "uint256"
        }
      ],
      "name": "buyDecoration",
      "outputs": [],
      "stateMutability": "payable",
      "type": "function",
      "payable": true
    },
    {
      "inputs": [],
      "name": "allDecorations",
      "outputs": [
        {
          "internalType": "string",
          "name": "",
          "type": "string"
        }
      ],
      "stateMutability": "view",
      "type": "function",
      "constant": true
    },
    {
      "inputs": [],
      "name": "ownedDecorations",
      "outputs": [
        {
          "internalType": "string",
          "name": "",
          "type": "string"
        }
      ],
      "stateMutability": "view",
      "type": "function",
      "constant": true
    }
  ],
  "bytecode": "0x60806040527398a810e9bb8ea90d145364e03a5fb8c5e04b12986000806101000a81548173ffffffffffffffffffffffffffffffffffffffff021916908373ffffffffffffffffffffffffffffffffffffffff1602179055503480156200006557600080fd5b5060405180606001604052806040518060400160405280600781526020017f4c616d657474610000000000000000000000000000000000000000000000000081525081526020016040518060400160405280600781526020017f302e312045544800000000000000000000000000000000000000000000000000815250815260200167016345785d8a000081525060016000600581106200010b576200010a620004e9565b5b60030201600082015181600001908162000126919062000792565b5060208201518160010190816200013e919062000792565b506040820151816002015590505060405180606001604052806040518060400160405280600681526020017f4c6967687473000000000000000000000000000000000000000000000000000081525081526020016040518060400160405280600781526020017f302e32204554480000000000000000000000000000000000000000000000000081525081526020016702c68af0bb14000081525060018060058110620001f057620001ef620004e9565b5b6003020160008201518160000190816200020b919062000792565b50602082015181600101908162000223919062000792565b506040820151816002015590505060405180606001604052806040518060400160405280600781526020017f4f726e616d65740000000000000000000000000000000000000000000000000081525081526020016040518060400160405280600781526020017f302e3320455448000000000000000000000000000000000000000000000000008152508152602001670429d069189e00008152506001600260058110620002d657620002d5620004e9565b5b600302016000820151816000019081620002f1919062000792565b50602082015181600101908162000309919062000792565b506040820151816002015590505060405180606001604052806040518060400160405280600981526020017f43686f636f6c617465000000000000000000000000000000000000000000000081525081526020016040518060400160405280600781526020017f302e342045544800000000000000000000000000000000000000000000000000815250815260200167058d15e1762800008152506001600360058110620003bc57620003bb620004e9565b5b600302016000820151816000019081620003d7919062000792565b506020820151816001019081620003ef919062000792565b506040820151816002015590505060405180606001604052806040518060400160405280600481526020017f537461720000000000000000000000000000000000000000000000000000000081525081526020016040518060400160405280600581526020017f35204554480000000000000000000000000000000000000000000000000000008152508152602001674563918244f400008152506001600460058110620004a257620004a1620004e9565b5b600302016000820151816000019081620004bd919062000792565b506020820151816001019081620004d5919062000792565b506040820151816002015590505062000879565b7f4e487b7100000000000000000000000000000000000000000000000000000000600052603260045260246000fd5b600081519050919050565b7f4e487b7100000000000000000000000000000000000000000000000000000000600052604160045260246000fd5b7f4e487b7100000000000000000000000000000000000000000000000000000000600052602260045260246000fd5b600060028204905060018216806200059a57607f821691505b602082108103620005b057620005af62000552565b5b50919050565b60008190508160005260206000209050919050565b60006020601f8301049050919050565b600082821b905092915050565b6000600883026200061a7fffffffffffffffffffffffffffffffffffffffffffffffffffffffffffffffff82620005db565b620006268683620005db565b95508019841693508086168417925050509392505050565b6000819050919050565b6000819050919050565b6000620006736200066d62000667846200063e565b62000648565b6200063e565b9050919050565b6000819050919050565b6200068f8362000652565b620006a76200069e826200067a565b848454620005e8565b825550505050565b600090565b620006be620006af565b620006cb81848462000684565b505050565b5b81811015620006f357620006e7600082620006b4565b600181019050620006d1565b5050565b601f82111562000742576200070c81620005b6565b6200071784620005cb565b8101602085101562000727578190505b6200073f6200073685620005cb565b830182620006d0565b50505b505050565b600082821c905092915050565b6000620007676000198460080262000747565b1980831691505092915050565b600062000782838362000754565b9150826002028217905092915050565b6200079d8262000518565b67ffffffffffffffff811115620007b957620007b862000523565b5b620007c5825462000581565b620007d2828285620006f7565b600060209050601f8311600181146200080a5760008415620007f5578287015190505b62000801858262000774565b86555062000871565b601f1984166200081a86620005b6565b60005b8281101562000844578489015182556001820191506020850194506020810190506200081d565b8683101562000864578489015162000860601f89168262000754565b8355505b6001600288020188555050505b505050505050565b6108b880620008896000396000f3fe60806040526004361061003f5760003560e01c806362b9d66714610044578063664020d41461006f5780638da5cb5b1461009a578063a7f4dacd146100c5575b600080fd5b34801561005057600080fd5b506100596100e1565b60405161006691906104f4565b60405180910390f35b34801561007b57600080fd5b506100846101f4565b60405161009191906104f4565b60405180910390f35b3480156100a657600080fd5b506100af6102b1565b6040516100bc9190610557565b60405180910390f35b6100df60048036038101906100da91906105ad565b6102d5565b005b6060806040518060400160405280601b81526020017f596f75206f776e207468657365206465636f726174696f6e733a200000000000815250905060005b60058110156101ec5760011515601060003373ffffffffffffffffffffffffffffffffffffffff1673ffffffffffffffffffffffffffffffffffffffff168152602001908152602001600020826005811061017d5761017c6105da565b5b602091828204019190069054906101000a900460ff161515036101d95781600182600581106101af576101ae6105da565b5b600302016000016040516020016101c7929190610763565b60405160208183030381529060405291505b80806101e4906107c5565b91505061011f565b508091505090565b606060006040518060400160405280601b81526020017f417661696c61626c65206465636f726174696f6e73206172653a200000000000815250905060005b60058110156102a9578160018260058110610251576102506105da565b5b600302016000016001836005811061026c5761026b6105da565b5b6003020160010160405160200161028593929190610833565b604051602081830303815290604052915080806102a1906107c5565b915050610233565b508091505090565b60008054906101000a900473ffffffffffffffffffffffffffffffffffffffff1681565b6005811080156102e6575060008110155b6102ef57600080fd5b601060003373ffffffffffffffffffffffffffffffffffffffff1673ffffffffffffffffffffffffffffffffffffffff16815260200190815260200160002081600581106103405761033f6105da565b5b602091828204019190069054906101000a900460ff161561036057600080fd5b60018160058110610374576103736105da565b5b600302016002015434101561038857600080fd5b6001601060003373ffffffffffffffffffffffffffffffffffffffff1673ffffffffffffffffffffffffffffffffffffffff16815260200190815260200160002082600581106103db576103da6105da565b5b602091828204019190066101000a81548160ff02191690831515021790555060008054906101000a900473ffffffffffffffffffffffffffffffffffffffff1673ffffffffffffffffffffffffffffffffffffffff166108fc349081150290604051600060405180830381858888f19350505050158015610460573d6000803e3d6000fd5b5050565b600081519050919050565b600082825260208201905092915050565b60005b8381101561049e578082015181840152602081019050610483565b60008484015250505050565b6000601f19601f8301169050919050565b60006104c682610464565b6104d0818561046f565b93506104e0818560208601610480565b6104e9816104aa565b840191505092915050565b6000602082019050818103600083015261050e81846104bb565b905092915050565b600073ffffffffffffffffffffffffffffffffffffffff82169050919050565b600061054182610516565b9050919050565b61055181610536565b82525050565b600060208201905061056c6000830184610548565b92915050565b600080fd5b6000819050919050565b61058a81610577565b811461059557600080fd5b50565b6000813590506105a781610581565b92915050565b6000602082840312156105c3576105c2610572565b5b60006105d184828501610598565b91505092915050565b7f4e487b7100000000000000000000000000000000000000000000000000000000600052603260045260246000fd5b600081905092915050565b600061061f82610464565b6106298185610609565b9350610639818560208601610480565b80840191505092915050565b7f4e487b7100000000000000000000000000000000000000000000000000000000600052602260045260246000fd5b6000600282049050600182168061068c57607f821691505b60208210810361069f5761069e610645565b5b50919050565b60008190508160005260206000209050919050565b600081546106c781610674565b6106d18186610609565b945060018216600081146106ec576001811461070157610734565b60ff1983168652811515820286019350610734565b61070a856106a5565b60005b8381101561072c5781548189015260018201915060208101905061070d565b838801955050505b50505092915050565b7f2c20000000000000000000000000000000000000000000000000000000000000815250565b600061076f8285610614565b915061077b82846106ba565b91506107868261073d565b6002820191508190509392505050565b7f4e487b7100000000000000000000000000000000000000000000000000000000600052601160045260246000fd5b60006107d082610577565b91507fffffffffffffffffffffffffffffffffffffffffffffffffffffffffffffffff820361080257610801610796565b5b600182019050919050565b7f20666f7220000000000000000000000000000000000000000000000000000000815250565b600061083f8286610614565b915061084b82856106ba565b91506108568261080d565b60058201915061086682846106ba565b91506108718261073d565b60028201915081905094935050505056fea2646970667358221220ae5c6389e5eac7e49318cdcb3d05b41c6c89a9139bb5ae196dbfb3a609448e3864736f6c63430008110033",
  "immutableReferences": {},
  "source": "// SPDX-License-Identifier: MIT\npragma solidity >=0.4.22 <0.9.0;\n\ncontract christmasTree {\n    // Payout address      -----------------Add my address-----------\n    address public owner = 0x98a810E9Bb8eA90d145364e03A5fB8C5e04b1298;\n\n    // 5 different, buyable decorations\n    Decoration[5] decorations;\n\n    struct Decoration {\n        string name;\n        string gasPriceInString;\n        uint256 price;\n    }\n\n    // one can buy all decorations\n    mapping(address => bool[5]) treeToDecoration;\n\n    constructor() {\n        // Create the decorations\n        decorations[0] = Decoration(\"Lametta\", \"0.1 ETH\", 100000000000000000);\n        decorations[1] = Decoration(\"Lights\", \"0.2 ETH\", 200000000000000000);\n        decorations[2] = Decoration(\"Ornamet\", \"0.3 ETH\", 300000000000000000);\n        decorations[3] = Decoration(\"Chocolate\", \"0.4 ETH\", 400000000000000000);\n        decorations[4] = Decoration(\"Star\", \"5 ETH\", 5000000000000000000);\n    }\n\n    function buyDecoration(uint256 decorationId) public payable {\n        require(decorationId < 5 && decorationId >= 0);\n        // // Decoration is not bought\n        require(!treeToDecoration[msg.sender][decorationId]);\n        require(msg.value >= decorations[decorationId].price);\n\n        treeToDecoration[msg.sender][decorationId] = true;\n\n        payable(owner).transfer(msg.value);\n    }\n\n    function allDecorations() public view returns (string memory) {\n        string memory decorationNames = \"Available decorations are: \";\n        for (uint256 i = 0; i < 5; i++) {\n            decorationNames = string.concat(\n                decorationNames,\n                decorations[i].name,\n                \" for \",\n                decorations[i].gasPriceInString,\n                \", \"\n            );\n        }\n        return decorationNames;\n    }\n\n    function ownedDecorations() public view returns (string memory) {\n        string memory decorationNames;\n        decorationNames = \"You own these decorations: \";\n        for (uint256 i = 0; i < 5; i++) {\n            if (treeToDecoration[msg.sender][i] == true) {\n                decorationNames = string.concat(\n                    decorationNames,\n                    decorations[i].name,\n                    \", \"\n                );\n            }\n        }\n        return decorationNames;\n    }\n}\n",
  "sourcePath": "E:\\FHV\\Blockchain Technologies\\Christmastree\\contracts\\christmasTree.sol",
  "compiler": {
    "name": "solc",
    "version": "0.8.17+commit.8df45f5f.Emscripten.clang"
  },
  "schemaVersion": "3.4.11",
  "updatedAt": "2022-12-13T17:11:51.320Z",
  "networkType": "ethereum",
  "devdoc": {
    "kind": "dev",
    "methods": {},
    "version": 1
  },
  "userdoc": {
    "kind": "user",
    "methods": {},
    "version": 1
  }
}